S00E00004D37436F64652E7372656317
S11300000C942A000C943C000C943C000C943C008E
S11300100C943C000C943C000C943C000C943C006C
S11300200C943C000C943C000C943C000C943C005C
S11300300C943C000C943C000C943C000C943C004C
S11300400C943C000C943C000C943C000C943C003C
S11300500C943C0011241FBECFE5D8E0DEBFCDBF19
S113006020E0A0E6B0E001C01D92A236B207E1F79D
S11300700E9491010C9499010C94000087B38E7F27
S113008087BB87B38D7F87BB87B38B7F87BB87B3E2
S1130090877F87BB87B38F7787BB84B3816084BB3B
S11300A084B3826084BB84B3846084BB84B388607B
S11300B084BB81B3816081BB81B3826081BB81B326
S11300C0806281BB81B3846081BB81B3886081BB62
S11300D081B3806181BB85B3826085BB8AB3816053
S11300E08ABB8AB382608ABB8AB384608ABB8AB3C0
S11300F088608ABB8AB380618ABB8AB380628ABB08
S11301000895811107C082B3816082BB82B38D7F61
S113011082BB08C0813031F482B38E7F82BB82B34C
S1130120826082BB8FB580688FBD8FB58F7B8FBD9A
S11301308FB58D7F8FBD8FB581608FBD8EB5886083
S11301408EBD8EB58F7E8EBD8EB581608EBD8EB513
S113015082608EBD8EB58B7F8EBD1BBC1ABC85B3F1
S1130160846085BB85B38D7F85BB0895CF93C82FED
S11301700DC0B09B0BC0B099FECF81E090E090938E
S11301806100809360008C2F0E9481008091600048
S113019090916100892B69F3CF9108958AB59BB53D
S11301A0892B51F0B799FECF92B380E1892782BBA6
S11301B092B384E0892782BB08958AB59BB5892BC5
S11301C099F08BB381608BBB8BB38D7F8BBB8BB36F
S11301D084608BBB8BB388608BBB8BB38F7E8BBBF4
S11301E08BB380628BBB08958AB59BB5892B91F440
S11301F08BB38E7F8BBB8BB38D7F8BBB8BB38B7F92
S11302008BBB8BB3877F8BBB8BB38F7E8BBB8BB34B
S11302108F7D8BBB08958FB58F778FBD82B38D7F14
S113022082BB82B38E7F82BB82B38B7F82BB82B35D
S1130230877F82BB82B38F7E82BB85B3826085BB9E
S113024085B38E7F85BB85B38B7F85BB85B3877F65
S113025085BB10926100109260001BBC1ABC0E9406
S1130260DD0080E00E94B6000895CF93DF9300D0B4
S1130270CDB7DEB71A8219824AC08AB59BB5892BDD
S113028069F485B38E7F85BB82B38F7E82BB82B3D4
S11302908B7F82BB82B3877F82BB03C085B38160BF
S11302A085BB0E94DD00949B04C085B3886085BB38
S11302B003C085B3877F85BBB39B09C0B399FECFC9
S11302C081E090E09A8389830E940B0120C0B19B56
S11302D00DC0B199FECF8AB59BB58F3F9105B8F497
S11302E08AB59BB5C3969BBD8ABD11C0B29B0CC099
S11302F0B299FECF8AB59BB5892B49F08AB59BB5D7
S1130300C3979BBD8ABD03C0B7990E94CE00898163
S11303109A81892B09F4B1CF0F900F90DF91CF917F
S113032008950E943E0080E00E94B6000E943501BC
S1090330FDCFF894FFCF9D
S9030000FC
